S0120000524C37384731345F3030312E6D6F74C6
S10700004103FFFFB6
S1130004A501A501A501A501A501A501A501A501B8
S1130014A501A501A501A501A501A501A501A501A8
S1130024A501A501A501A501A501A501A501A50198
S1130034A501A501A501A501A501A501A501A50188
S1130044A501A501A501A501A501A501A501A50178
S1130054A501A501A501A501A501A501A501A50168
S1130064A501A501A501A501A501A501A501A50158
S10F0074A501A501A501A501A501A50198
S10700C0EFFFE10465
S10D00C4000000000000000000002E
S11300D8C9F0A0FFADF0BDF2DAF2F1480000C9F0B2
S11300E8A1FFADF0BDF4FAF48B9DF26AF280ADF095
S11300F8DAF48DF2480000C9F0A4FFADF0BDF4FABB
S1130108F48B9DF25AF2EFADF0DAF48DF248000068
S1130118C9F0A1FFADF0BDF4FAF48B9DF26AF24088
S1130128ADF0DAF48DF2480000C9F0F300ADF0BD8B
S1130138F2DAF25110480000C9F0A4FFADF0BDF4A2
S1130148FAF48B9DF25AF2BFADF0DAF48DF248005E
S113015800C9F0A1FFADF0BDF4FAF48B9DF25AF298
S1130168FEADF0DAF48DF2480000D72002C9F0A8F9
S1130178FFADF0BDF2FAF28B9DF098011002D7C9D9
S1130188F006FFADF0BDF2DAF2F1480000C9F0263E
S1130198FFADF0BDF2DAF251FB480000D761CFC1E0
S11301A8C3C5C7C6C4C2C061FCC9F0E4FFADF0BD95
S11301B8F4FAF48B9DF26AF201ADF0DAF48DF248A8
S11301C80000C9F0E0FFADF0BDF4FAF48B9DF25ADB
S11301D8F2FEADF0DAF48DF2480000C9F0ECFFADA0
S11301E8F0BDF4FAF48B9DF26AF201ADF0DAF48D05
S11301F8F2480000C9F0E8FFADF0BDF4FAF48B9DB5
S1130208F26AF201ADF0DAF48DF2480000C9F0E4C4
S1130218FFADF0BDF4FAF48B9DF25AF2FEADF0DABC
S1130228F48DF2480000D7C9F0ABFFADF0BDF2DAA7
S1130238F251AC480000D7D7C9F07700ADF0BDF251
S1130248DAF2F1480000C9F07900ADF0BDF2DAF253
S1130258F1480000FC730100FC870100FCD8000091
S1130268C9F0F002ADF0BDF2DAF2F1480000C9F0CD
S11302787800ADF0BDF2DAF2F1480000C9F07B0075
S1130288ADF0BDF2DAF2F1480000D72002717BFA32
S1130298FC400200E6B800BDF01002D72002FCF2D0
S11302A80200C9F006FFADF0BDF4FAF48B9DF26AC2
S11302B8F204ADF0DAF48DF248000030E803B80037
S11302C8FC050300C9F006FFADF0BDF4FAF48B9DFC
S11302D8F25AF2FBADF0DAF48DF248000030E8038C
S11302E8B800FC050300ECAA0200717AFA717BFAE3
S11302F8FCB10100FCD80000FC870100D72006EC03
S11303082A0300F6B804EC1D0300A804B802B800D8
S1130318A1BDF0B804A804BDF044E70361E3EC12FE
S11303280300A80ABDF0B1B80AADF044000061E8C2
S1130338EC0B03001006D74103CBF800FE41006123
S1130348CF34A0033600AF61DF3600AF3000AF27EB
S1130358311E440000DD0EB161CF11A9BBA5A5A7CC
S1130368A761DFEFED61CF3600AF30000061DF3009
S113037800AF27311E440000DD0AB161CFBBA7A737
S113038861DFEFF161CFFC93020000300000C1C1CE
S10B0398C1FCA40200EFFE0009
S9030341B8
